{
  "contractName": "token",
  "abi": [
    {
      "inputs": [],
      "stateMutability": "nonpayable",
      "type": "constructor"
    },
    {
      "anonymous": false,
      "inputs": [
        {
          "indexed": true,
          "internalType": "address",
          "name": "_from",
          "type": "address"
        },
        {
          "indexed": true,
          "internalType": "address",
          "name": "_to",
          "type": "address"
        },
        {
          "indexed": false,
          "internalType": "uint256",
          "name": "_value",
          "type": "uint256"
        }
      ],
      "name": "Transfer",
      "type": "event"
    },
    {
      "inputs": [
        {
          "internalType": "address",
          "name": "",
          "type": "address"
        }
      ],
      "name": "balanceOf",
      "outputs": [
        {
          "internalType": "uint256",
          "name": "",
          "type": "uint256"
        }
      ],
      "stateMutability": "view",
      "type": "function",
      "constant": true
    },
    {
      "inputs": [],
      "name": "decimals",
      "outputs": [
        {
          "internalType": "uint256",
          "name": "",
          "type": "uint256"
        }
      ],
      "stateMutability": "view",
      "type": "function",
      "constant": true
    },
    {
      "inputs": [],
      "name": "name",
      "outputs": [
        {
          "internalType": "string",
          "name": "",
          "type": "string"
        }
      ],
      "stateMutability": "view",
      "type": "function",
      "constant": true
    },
    {
      "inputs": [],
      "name": "symbol",
      "outputs": [
        {
          "internalType": "string",
          "name": "",
          "type": "string"
        }
      ],
      "stateMutability": "view",
      "type": "function",
      "constant": true
    },
    {
      "inputs": [],
      "name": "totalSupply",
      "outputs": [
        {
          "internalType": "uint256",
          "name": "",
          "type": "uint256"
        }
      ],
      "stateMutability": "view",
      "type": "function",
      "constant": true
    },
    {
      "inputs": [
        {
          "internalType": "address",
          "name": "_to",
          "type": "address"
        },
        {
          "internalType": "uint256",
          "name": "_value",
          "type": "uint256"
        }
      ],
      "name": "transfare",
      "outputs": [
        {
          "internalType": "bool",
          "name": "success",
          "type": "bool"
        }
      ],
      "stateMutability": "nonpayable",
      "type": "function"
    }
  ],
  "bytecode": "0x60806040526040518060400160405280600c81526020017f41726162696320546f6b656e0000000000000000000000000000000000000000815250600090805190602001906200005192919062000125565b506040518060400160405280600481526020017f4152414200000000000000000000000000000000000000000000000000000000815250600190805190602001906200009f92919062000125565b50600a600255348015620000b257600080fd5b50600254600a620000c4919062000230565b6107d0620000d391906200036d565b600381905550600354600460003373ffffffffffffffffffffffffffffffffffffffff1673ffffffffffffffffffffffffffffffffffffffff1681526020019081526020016000208190555062000479565b8280546200013390620003d8565b90600052602060002090601f016020900481019282620001575760008555620001a3565b82601f106200017257805160ff1916838001178555620001a3565b82800160010185558215620001a3579182015b82811115620001a257825182559160200191906001019062000185565b5b509050620001b29190620001b6565b5090565b5b80821115620001d1576000816000905550600101620001b7565b5090565b6000808291508390505b60018511156200022757808604811115620001ff57620001fe6200040e565b5b60018516156200020f5780820291505b80810290506200021f856200046c565b9450620001df565b94509492505050565b60006200023d82620003ce565b91506200024a83620003ce565b9250620002797fffffffffffffffffffffffffffffffffffffffffffffffffffffffffffffffff848462000281565b905092915050565b60008262000293576001905062000366565b81620002a3576000905062000366565b8160018114620002bc5760028114620002c757620002fd565b600191505062000366565b60ff841115620002dc57620002db6200040e565b5b8360020a915084821115620002f657620002f56200040e565b5b5062000366565b5060208310610133831016604e8410600b8410161715620003375782820a9050838111156200033157620003306200040e565b5b62000366565b620003468484846001620001d5565b9250905081840481111562000360576200035f6200040e565b5b81810290505b9392505050565b60006200037a82620003ce565b91506200038783620003ce565b9250817fffffffffffffffffffffffffffffffffffffffffffffffffffffffffffffffff0483118215151615620003c357620003c26200040e565b5b828202905092915050565b6000819050919050565b60006002820490506001821680620003f157607f821691505b602082108114156200040857620004076200043d565b5b50919050565b7f4e487b7100000000000000000000000000000000000000000000000000000000600052601160045260246000fd5b7f4e487b7100000000000000000000000000000000000000000000000000000000600052602260045260246000fd5b60008160011c9050919050565b61083c80620004896000396000f3fe608060405234801561001057600080fd5b50600436106100625760003560e01c806306fdde031461006757806318160ddd14610085578063313ce567146100a35780635f3a4f30146100c157806370a08231146100f157806395d89b4114610121575b600080fd5b61006f61013f565b60405161007c91906105d4565b60405180910390f35b61008d6101cd565b60405161009a91906105f6565b60405180910390f35b6100ab6101d3565b6040516100b891906105f6565b60405180910390f35b6100db60048036038101906100d69190610522565b6101d9565b6040516100e891906105b9565b60405180910390f35b61010b600480360381019061010691906104f5565b6103f9565b60405161011891906105f6565b60405180910390f35b610129610411565b60405161013691906105d4565b60405180910390f35b6000805461014c90610732565b80601f016020809104026020016040519081016040528092919081815260200182805461017890610732565b80156101c55780601f1061019a576101008083540402835291602001916101c5565b820191906000526020600020905b8154815290600101906020018083116101a857829003601f168201915b505050505081565b60035481565b60025481565b60008073ffffffffffffffffffffffffffffffffffffffff168373ffffffffffffffffffffffffffffffffffffffff16141561021457600080fd5b81600460003373ffffffffffffffffffffffffffffffffffffffff1673ffffffffffffffffffffffffffffffffffffffff16815260200190815260200160002054101561026057600080fd5b6102b282600460003373ffffffffffffffffffffffffffffffffffffffff1673ffffffffffffffffffffffffffffffffffffffff1681526020019081526020016000205461049f90919063ffffffff16565b600460003373ffffffffffffffffffffffffffffffffffffffff1673ffffffffffffffffffffffffffffffffffffffff1681526020019081526020016000208190555061034782600460008673ffffffffffffffffffffffffffffffffffffffff1673ffffffffffffffffffffffffffffffffffffffff168152602001908152602001600020546104b590919063ffffffff16565b600460008573ffffffffffffffffffffffffffffffffffffffff1673ffffffffffffffffffffffffffffffffffffffff168152602001908152602001600020819055508273ffffffffffffffffffffffffffffffffffffffff163373ffffffffffffffffffffffffffffffffffffffff167fddf252ad1be2c89b69c2b068fc378daa952ba7f163c4a11628f55a4df523b3ef846040516103e791906105f6565b60405180910390a36001905092915050565b60046020528060005260406000206000915090505481565b6001805461041e90610732565b80601f016020809104026020016040519081016040528092919081815260200182805461044a90610732565b80156104975780601f1061046c57610100808354040283529160200191610497565b820191906000526020600020905b81548152906001019060200180831161047a57829003601f168201915b505050505081565b600081836104ad9190610683565b905092915050565b600081836104c3919061062d565b905092915050565b6000813590506104da816107d8565b92915050565b6000813590506104ef816107ef565b92915050565b60006020828403121561050b5761050a6107c2565b5b6000610519848285016104cb565b91505092915050565b60008060408385031215610539576105386107c2565b5b6000610547858286016104cb565b9250506020610558858286016104e0565b9150509250929050565b61056b816106c9565b82525050565b600061057c82610611565b610586818561061c565b93506105968185602086016106ff565b61059f816107c7565b840191505092915050565b6105b3816106f5565b82525050565b60006020820190506105ce6000830184610562565b92915050565b600060208201905081810360008301526105ee8184610571565b905092915050565b600060208201905061060b60008301846105aa565b92915050565b600081519050919050565b600082825260208201905092915050565b6000610638826106f5565b9150610643836106f5565b9250827fffffffffffffffffffffffffffffffffffffffffffffffffffffffffffffffff0382111561067857610677610764565b5b828201905092915050565b600061068e826106f5565b9150610699836106f5565b9250828210156106ac576106ab610764565b5b828203905092915050565b60006106c2826106d5565b9050919050565b60008115159050919050565b600073ffffffffffffffffffffffffffffffffffffffff82169050919050565b6000819050919050565b60005b8381101561071d578082015181840152602081019050610702565b8381111561072c576000848401525b50505050565b6000600282049050600182168061074a57607f821691505b6020821081141561075e5761075d610793565b5b50919050565b7f4e487b7100000000000000000000000000000000000000000000000000000000600052601160045260246000fd5b7f4e487b7100000000000000000000000000000000000000000000000000000000600052602260045260246000fd5b600080fd5b6000601f19601f8301169050919050565b6107e1816106b7565b81146107ec57600080fd5b50565b6107f8816106f5565b811461080357600080fd5b5056fea2646970667358221220d1c66cd1e4b01843b1bc9d0864d7c2e4ebc29a8f29f2910a5fc52ef398447bf764736f6c63430008070033",
  "immutableReferences": {},
  "source": "// SPDX-License-Identifier: MIT\npragma solidity >=0.4.22 <0.9.0;\nimport \"@openzeppelin/contracts/utils/math/SafeMath.sol\";\n\n\ncontract token{\n using SafeMath for uint;\nstring public name = \"Arabic Token\";\nstring public symbol = \"ARAB\";\nuint256 public decimals = 10;\nuint256 public totalSupply;\n\nmapping(address=>uint256) public balanceOf;\nevent Transfer(address indexed _from, address indexed _to, uint256 _value);\n\n    constructor() {\n    totalSupply = 2000 * (10 ** decimals); //2000,00000,00000\n    balanceOf[msg.sender]= totalSupply;\n    }\n\nfunction transfare(address _to,uint256 _value) public returns(bool success){\n\n    require(_to != address(0)); //0x0\n    require(balanceOf[msg.sender] >= _value);\n\n    balanceOf[msg.sender] = balanceOf[msg.sender].sub(_value);\n    balanceOf[_to] =balanceOf[_to].add(_value);\n    emit Transfer(msg.sender,_to,_value);\n    \n\n\n    return true;\n\n}\n\nmodifier save(){\nrequire(msg.value != 0);\n\n_;\n}\n\n\n\n}",
  "sourcePath": "/Main Hard/Study/BlockChain_Arabic/Arab_Token/contracts/Token.sol",
  "compiler": {
    "name": "solc",
    "version": "0.8.7+commit.e28d00a7.Emscripten.clang"
  },
  "schemaVersion": "3.4.3",
  "updatedAt": "2021-08-26T08:06:20.426Z",
  "networkType": "ethereum",
  "devdoc": {
    "kind": "dev",
    "methods": {},
    "version": 1
  },
  "userdoc": {
    "kind": "user",
    "methods": {},
    "version": 1
  }
}